:100000000C9448000C9433030C9472030C94650018
:100010000C94AF030C9465000C94EF030C946500F2
:100020000C9465000C9465000C9465000C946500BC
:100030000C9465000C9465000C9465000C946500AC
:100040000C9465000C9465000C9465000C9465009C
:100050000C9465000C9465000C9465000C9465008C
:100060000C9465000C9465000C9465000C9465007C
:100070000C9465000C9465000C946500DF00E200B0
:10008000E500E800EB00EE00F100F400F700FA00F4
:1000900011241FBECFEFD0E1DEBFCDBF11E0A0E045
:1000A000B1E0E2E7F8E002C005900D92A430B1079C
:1000B000D9F721E0A4E0B1E001C01D92AF30B20752
:1000C000E1F70E94A9020C9437040C94000080E42C
:1000D00081B98FEF82B984B915B88FE787B980E805
:1000E00088B983EF8AB98FE08BB9E89AE99AE9E693
:1000F000F0E080818A608083EBE6F0E080818760B9
:100100008083EDE6F0E0808180688083E8E6F0E0BF
:10011000808185608083E0EBF0E080818160808376
:1001200088EC8093B300E0E8F0E080818168808310
:100130001092890010928800ECE7F0E080818064E2
:100140008083808187608083EAE7F0E08081806837
:100150008083808186608083E4E6F0E0808180682F
:1001600080838081806180838081826080837894B5
:10017000089505990DC080B1887169F0039B0EC088
:10018000049B0FC080B1887179F48FEF9FEF0895C1
:100190008FEF9FEF089586E090E008958CE090E067
:1001A000089582E190E0089589E190E008958A3011
:1001B000910510F5FC01E25CFF4F0C9431048EEECA
:1001C00085B9089580E685B908958DEC85B90895BF
:1001D00089EE85B9089583E685B908958BEA85B9D6
:1001E00008958FEA85B9089580EE85B908958FEE58
:1001F00085B908958BEE85B90895611106C0E1E8CF
:10020000F0E080818E7F808308956130F9F4E1E829
:10021000F0E02081216020838130910521F422E3E8
:10022000209388000EC08230910521F48BE48093E6
:10023000880008958330910521F48DE7809388002C
:100240000895049719F48FEF809388000895813002
:10025000910511F4589808958230910511F4599838
:100260000895039709F4169808958130910511F4C3
:10027000589A08C08230910511F4599A03C0039727
:1002800009F4169A89E698E10197F1F700C0000099
:100290000895CF93DF93EC01CE3F8FEFD80799F409
:1002A0008FEF85B981E090E00E94350182E090E017
:1002B0000E94350181E090E00E94270182E090E0F9
:1002C0000E942701B8C0CF3F8FEFD80799F480E193
:1002D00085B981E090E00E94350182E090E00E94C3
:1002E000350181E090E00E94270182E090E00E94C9
:1002F0002701A1C0CA30D10544F480E090E00E94FB
:10030000D70081E090E00E943501C436D10534F079
:1003100080E185B981E090E00E943501CA35D105C0
:1003200054F089E090E00E94D70081E090E00E94C4
:100330003501CA55D109C035D10554F088E090E0A7
:100340000E94D70081E090E00E943501C055D1099C
:10035000C634D10554F087E090E00E94D70081E0D8
:1003600090E00E943501C654D109CC33D1054CF040
:1003700086E090E00E94D70081E090E00E94350185
:10038000EC97C233D1054CF085E090E00E94D70095
:1003900081E090E00E943501E297C832D1054CF02F
:1003A00084E090E00E94D70081E090E00E94350157
:1003B000A897CE31D105C4F083E090E00E94D70029
:1003C00081E090E00E943501CE014E978E3191057B
:1003D00054F083E090E00E94D70081E090E00E941A
:1003E0003501EC9701C0EC01C431D1054CF082E03D
:1003F00090E00E94D70081E090E00E943501649770
:10040000CA30D1054CF081E090E00E94D70081E035
:1004100090E00E9435012A9781E090E00E94270138
:10042000CE010E94D70082E090E00E94350182E078
:1004300090E00E942701DF91CF910895611102C0E1
:1004400015B818C06130B1F48130910519F420EC71
:1004500025B90CC08230910519F480EF85B90AC026
:100460008330910519F48CEF85B904C0049711F419
:100470008FEF85B983E090E00E94350183E090E042
:100480000E9427010895CF93DF938EEF9FEF0E9484
:10049000490160E081E090E00E941E0260E081E09E
:1004A00090E00E94FD0081EE94E00197F1F700C01A
:1004B00000008FEF9FEF0E94490181EE94E00197C9
:1004C000F1F700C00000C1E0D0E08EEF9FEF0E9486
:1004D000490161E0CE010E941E0261E0CE010E944E
:1004E000FD0081EE94E00197F1F700C000008FEF6E
:1004F0009FEF0E94490181EE94E00197F1F700C05F
:1005000000002196C530D10501F7C4E0D0E08EEFA0
:100510009FEF0E94490161E0CE010E941E0261E04E
:10052000CE010E94FD0081EE94E00197F1F700C03A
:1005300000008FEF9FEF0E94490181EE94E0019748
:10054000F1F700C000002197209709F7DF91CF91C4
:1005500008950E9467000E94430281E090E00E949B
:10056000270182E090E00E94270183E090E00E9452
:100570002701C1E0D0E0992493940FEF1FEF0F2ED5
:10058000F8E7AF2EB12CF02D0F2EF9E7CF2ED12C9E
:10059000F02D0F2EFFE08F2EF02D0F2EEE24EA947B
:1005A000F3E0FF2EF02DD0930A01C09309010E94C1
:1005B000B90090930E0180930D018F3F2FEF9207AA
:1005C00039F41092030110930C0100930B010AC03F
:1005D00020910301211106C090930C0180930B011F
:1005E000909203018091060190910701892B31F4CB
:1005F00080910B0190910C010E94490180910601AC
:10060000909107010197F1F4F50120818091040197
:1006100090910501822B9093050180930401F601CE
:100620002081AC01522B849EC001859E900D112427
:10063000B7010E941D04CB01709305016093040172
:100640000E94490160910001809101019091020195
:100650000E941E02609100018091010190910201AF
:100660000E94FD00A0CF1F920F920FB60F9211248F
:100670008F93EF93FF9380910801811116C08091B1
:100680000001813091F480930801E9E6F0E0808177
:1006900081608083E0EBF0E0808180688083E1EB23
:1006A000F0E080818160808315C0809108018130F5
:1006B00089F410920801E9E6F0E080818E7F808362
:1006C000E0EBF0E080818F778083E1EBF0E08081E8
:1006D0008E7F8083FF91EF918F910F900FBE0F90CF
:1006E0001F9018951F920F920FB60F9211248F939F
:1006F0009F93EF93FF938091060190910701892BBF
:1007000089F481E090E09093070180930601E9E687
:10071000F0E0808184608083EAE7F0E0808180649B
:10072000808314C08091060190910701019751F4D4
:100730001092070110920601E9E6F0E080818B7FBC
:10074000808304C01092070110920601FF91EF917F
:100750009F918F910F900FBE0F901F9018951F9231
:100760000F920FB60F9211248F939F9300990FC091
:10077000809101019091020104974CF48091010154
:1007800090910201019690930201809301010199D9
:100790000FC0809101019091020102974CF080916D
:1007A0000101909102010197909302018093010150
:1007B00002990EC080910001811104C081E08093F4
:1007C000000106C080910001813011F410920001F7
:1007D0009F918F910F900FBE0F901F9018951F92B1
:1007E0000F920FB60F9211248F939F9337991EC0CB
:1007F00080910B0190910C01181619064CF4809110
:100800000B0190910C01019790930C0180930B01C7
:1008100098B181E0892788B989E698E10197F1F7D5
:1008200000C0000098B181E0892788B99F918F911D
:100830000F900FBE0F901F901895AA1BBB1B51E184
:1008400007C0AA1FBB1FA617B70710F0A61BB70B40
:10085000881F991F5A95A9F780959095BC01CD01E5
:100860000895EE0FFF1F0590F491E02D0994F89480
:02087000FFCFB8
:04087200010100017F
:00000001FF
